{
  "_format": "hh3-artifact-1",
  "contractName": "AdmissionEscrow",
  "sourceName": "contracts/AdmissionEscrow.sol",
  "abi": [
    {
      "inputs": [
        {
          "internalType": "address",
          "name": "_teacher",
          "type": "address"
        }
      ],
      "stateMutability": "nonpayable",
      "type": "constructor"
    },
    {
      "inputs": [],
      "name": "confirmAdmission",
      "outputs": [],
      "stateMutability": "nonpayable",
      "type": "function"
    },
    {
      "inputs": [],
      "name": "fee",
      "outputs": [
        {
          "internalType": "uint256",
          "name": "",
          "type": "uint256"
        }
      ],
      "stateMutability": "view",
      "type": "function"
    },
    {
      "inputs": [],
      "name": "payFee",
      "outputs": [],
      "stateMutability": "payable",
      "type": "function"
    },
    {
      "inputs": [],
      "name": "rejectAdmission",
      "outputs": [],
      "stateMutability": "nonpayable",
      "type": "function"
    },
    {
      "inputs": [],
      "name": "status",
      "outputs": [
        {
          "internalType": "enum AdmissionEscrow.Status",
          "name": "",
          "type": "uint8"
        }
      ],
      "stateMutability": "view",
      "type": "function"
    },
    {
      "inputs": [],
      "name": "student",
      "outputs": [
        {
          "internalType": "address",
          "name": "",
          "type": "address"
        }
      ],
      "stateMutability": "view",
      "type": "function"
    },
    {
      "inputs": [],
      "name": "teacher",
      "outputs": [
        {
          "internalType": "address",
          "name": "",
          "type": "address"
        }
      ],
      "stateMutability": "view",
      "type": "function"
    }
  ],
  "bytecode": "0x6080604052348015600e575f5ffd5b50604051610561380380610561833981016040819052602b916066565b5f8054336001600160a01b031991821617909155600180549091166001600160a01b03929092169190911790556003805460ff191690556091565b5f602082840312156075575f5ffd5b81516001600160a01b0381168114608a575f5ffd5b9392505050565b6104c38061009e5f395ff3fe60806040526004361061006e575f3560e01c8063699450e81161004c578063699450e8146100bf578063b46bff89146100f5578063cf5ed6d314610114578063ddca3f4314610128575f5ffd5b8063200d2ed21461007257806329610252146100a157806351c3d844146100ab575b5f5ffd5b34801561007d575f5ffd5b5060035461008b9060ff1681565b6040516100989190610467565b60405180910390f35b6100a961014b565b005b3480156100b6575f5ffd5b506100a9610246565b3480156100ca575f5ffd5b505f546100dd906001600160a01b031681565b6040516001600160a01b039091168152602001610098565b348015610100575f5ffd5b506001546100dd906001600160a01b031681565b34801561011f575f5ffd5b506100a961038f565b348015610133575f5ffd5b5061013d60025481565b604051908152602001610098565b5f546001600160a01b031633146101a05760405162461bcd60e51b81526020600482015260146024820152734f6e6c792073747564656e742063616e2070617960601b60448201526064015b60405180910390fd5b5f6003805460ff16908111156101b8576101b8610453565b146101f45760405162461bcd60e51b815260206004820152600c60248201526b105b1c9958591e481c185a5960a21b6044820152606401610197565b5f34116102335760405162461bcd60e51b815260206004820152600d60248201526c0a6cadcc840e6dedaca408aa89609b1b6044820152606401610197565b346002556003805460ff19166001179055565b6001546001600160a01b0316331461028f5760405162461bcd60e51b815260206004820152600c60248201526b27b7363c903a32b0b1b432b960a11b6044820152606401610197565b60016003805460ff16908111156102a8576102a8610453565b146102e45760405162461bcd60e51b815260206004820152600c60248201526b119959481b9bdd081c185a5960a21b6044820152606401610197565b6003805460ff1916600290811790915560015490546040515f926001600160a01b031691905b5f6040518083038185875af1925050503d805f8114610344576040519150601f19603f3d011682016040523d82523d5f602084013e610349565b606091505b505090508061038c5760405162461bcd60e51b815260206004820152600f60248201526e151c985b9cd9995c8819985a5b1959608a1b6044820152606401610197565b50565b6001546001600160a01b031633146103d85760405162461bcd60e51b815260206004820152600c60248201526b27b7363c903a32b0b1b432b960a11b6044820152606401610197565b60016003805460ff16908111156103f1576103f1610453565b1461042d5760405162461bcd60e51b815260206004820152600c60248201526b119959481b9bdd081c185a5960a21b6044820152606401610197565b6003805460ff1916811790555f80546002546040516001600160a01b039092169161030a565b634e487b7160e01b5f52602160045260245ffd5b602081016004831061048757634e487b7160e01b5f52602160045260245ffd5b9190529056fea2646970667358221220e351ecbb0e26172285dad8c73e20cc4652d043c5099f73d36b094928742fd66664736f6c634300081c0033",
  "linkReferences": {},
  "deployedLinkReferences": {},
  "immutableReferences": {},
  "inputSourceName": "project/contracts/AdmissionEscrow.sol",
  "buildInfoId": "solc-0_8_28-71616695ea74fa7108f1131d9b8e151bc5bab7cc"
}