{
  "_format": "hh3-artifact-1",
  "contractName": "PaymentReceiver",
  "sourceName": "contracts/PaymentReceiver.sol",
  "abi": [
    {
      "inputs": [],
      "stateMutability": "nonpayable",
      "type": "constructor"
    },
    {
      "anonymous": false,
      "inputs": [
        {
          "indexed": false,
          "internalType": "address",
          "name": "sender",
          "type": "address"
        },
        {
          "indexed": false,
          "internalType": "uint256",
          "name": "amount",
          "type": "uint256"
        }
      ],
      "name": "PaymentReceived",
      "type": "event"
    },
    {
      "stateMutability": "payable",
      "type": "fallback"
    },
    {
      "inputs": [],
      "name": "owner",
      "outputs": [
        {
          "internalType": "address",
          "name": "",
          "type": "address"
        }
      ],
      "stateMutability": "view",
      "type": "function"
    },
    {
      "inputs": [],
      "name": "withdraw",
      "outputs": [],
      "stateMutability": "nonpayable",
      "type": "function"
    },
    {
      "stateMutability": "payable",
      "type": "receive"
    }
  ],
  "bytecode": "0x6080604052348015600e575f5ffd5b505f80546001600160a01b031916331790556101ab8061002d5f395ff3fe60806040526004361061002c575f3560e01c80633ccfd60b146100a15780638da5cb5b146100b75761006c565b3661006c57604080513381523460208201527f6ef95f06320e7a25a04a175ca677b7052bdd97131872c2192525a629f51be77091015b60405180910390a1005b604080513381523460208201527f6ef95f06320e7a25a04a175ca677b7052bdd97131872c2192525a629f51be7709101610062565b3480156100ac575f5ffd5b506100b56100f1565b005b3480156100c2575f5ffd5b505f546100d5906001600160a01b031681565b6040516001600160a01b03909116815260200160405180910390f35b5f546001600160a01b0316331461013b5760405162461bcd60e51b815260206004820152600a60248201526927b7363c9037bbb732b960b11b604482015260640160405180910390fd5b5f80546040516001600160a01b03909116914780156108fc02929091818181858888f19350505050158015610172573d5f5f3e3d5ffd5b5056fea26469706673582212203d434935f86e1434c24d640fa2e806c40e6575b5ac15b3856ef304be059f11a564736f6c634300081c0033",
  "linkReferences": {},
  "deployedLinkReferences": {},
  "immutableReferences": {},
  "inputSourceName": "project/contracts/PaymentReceiver.sol",
  "buildInfoId": "solc-0_8_28-927c03ba69adbaa3bc35fcf873ba9e308a43a79b"
}