{
  "_format": "hh3-artifact-1",
  "contractName": "SimpleEscrow",
  "sourceName": "contracts/SimpleEscrow.sol",
  "abi": [
    {
      "inputs": [
        {
          "internalType": "address",
          "name": "_buyer",
          "type": "address"
        },
        {
          "internalType": "address payable",
          "name": "_seller",
          "type": "address"
        },
        {
          "internalType": "uint256",
          "name": "_amount",
          "type": "uint256"
        }
      ],
      "stateMutability": "nonpayable",
      "type": "constructor"
    },
    {
      "anonymous": false,
      "inputs": [
        {
          "indexed": false,
          "internalType": "address",
          "name": "buyer",
          "type": "address"
        },
        {
          "indexed": false,
          "internalType": "uint256",
          "name": "amount",
          "type": "uint256"
        }
      ],
      "name": "Deposited",
      "type": "event"
    },
    {
      "anonymous": false,
      "inputs": [
        {
          "indexed": false,
          "internalType": "address",
          "name": "seller",
          "type": "address"
        },
        {
          "indexed": false,
          "internalType": "uint256",
          "name": "amount",
          "type": "uint256"
        }
      ],
      "name": "Released",
      "type": "event"
    },
    {
      "inputs": [],
      "name": "amount",
      "outputs": [
        {
          "internalType": "uint256",
          "name": "",
          "type": "uint256"
        }
      ],
      "stateMutability": "view",
      "type": "function"
    },
    {
      "inputs": [],
      "name": "buyer",
      "outputs": [
        {
          "internalType": "address",
          "name": "",
          "type": "address"
        }
      ],
      "stateMutability": "view",
      "type": "function"
    },
    {
      "inputs": [],
      "name": "deposit",
      "outputs": [],
      "stateMutability": "payable",
      "type": "function"
    },
    {
      "inputs": [],
      "name": "deposited",
      "outputs": [
        {
          "internalType": "bool",
          "name": "",
          "type": "bool"
        }
      ],
      "stateMutability": "view",
      "type": "function"
    },
    {
      "inputs": [],
      "name": "release",
      "outputs": [],
      "stateMutability": "nonpayable",
      "type": "function"
    },
    {
      "inputs": [],
      "name": "released",
      "outputs": [
        {
          "internalType": "bool",
          "name": "",
          "type": "bool"
        }
      ],
      "stateMutability": "view",
      "type": "function"
    },
    {
      "inputs": [],
      "name": "seller",
      "outputs": [
        {
          "internalType": "address payable",
          "name": "",
          "type": "address"
        }
      ],
      "stateMutability": "view",
      "type": "function"
    }
  ],
  "bytecode": "0x60806040526003805461ffff191690553480156019575f5ffd5b506040516104f73803806104f78339810160408190526036916082565b5f80546001600160a01b039485166001600160a01b031991821617909155600180549390941692169190911790915560025560bd565b6001600160a01b0381168114607f575f5ffd5b50565b5f5f5f606084860312156093575f5ffd5b8351609c81606c565b602085015190935060ab81606c565b80925050604084015190509250925092565b61042d806100ca5f395ff3fe60806040526004361061006e575f3560e01c8063961325211161004c57806396132521146100e2578063aa8c217c14610110578063d0e30db014610133578063eef49ee31461013b575f5ffd5b806308551a53146100725780637150d8ae146100ae57806386d1a69f146100cc575b5f5ffd5b34801561007d575f5ffd5b50600154610091906001600160a01b031681565b6040516001600160a01b0390911681526020015b60405180910390f35b3480156100b9575f5ffd5b505f54610091906001600160a01b031681565b3480156100d7575f5ffd5b506100e0610154565b005b3480156100ed575f5ffd5b5060035461010090610100900460ff1681565b60405190151581526020016100a5565b34801561011b575f5ffd5b5061012560025481565b6040519081526020016100a5565b6100e06102d2565b348015610146575f5ffd5b506003546101009060ff1681565b5f546001600160a01b031633146101ab5760405162461bcd60e51b81526020600482015260166024820152754f6e6c792062757965722063616e2072656c6561736560501b60448201526064015b60405180910390fd5b60035460ff166101f15760405162461bcd60e51b8152602060048201526011602482015270139bdd1a1a5b99c819195c1bdcda5d1959607a1b60448201526064016101a2565b600354610100900460ff161561023c5760405162461bcd60e51b815260206004820152601060248201526f105b1c9958591e481c995b19585cd95960821b60448201526064016101a2565b6003805461ff0019166101001790556001546002546040516001600160a01b039092169181156108fc0291905f818181858888f19350505050158015610284573d5f5f3e3d5ffd5b50600154600254604080516001600160a01b03909316835260208301919091527fb21fb52d5749b80f3182f8c6992236b5e5576681880914484d7f4c9b062e619e91015b60405180910390a1565b5f546001600160a01b031633146103245760405162461bcd60e51b815260206004820152601660248201527513db9b1e48189d5e595c8818d85b8819195c1bdcda5d60521b60448201526064016101a2565b60035460ff161561036b5760405162461bcd60e51b8152602060048201526011602482015270105b1c9958591e4819195c1bdcda5d1959607a1b60448201526064016101a2565b60025434146103b55760405162461bcd60e51b8152602060048201526016602482015275135d5cdd081cd95b9908195e1858dd08185b5bdd5b9d60521b60448201526064016101a2565b6003805460ff19166001179055604080513381523460208201527f2da466a7b24304f47e87fa2e1e5a81b9831ce54fec19055ce277ca2f39ba42c491016102c856fea26469706673582212207fa65c5f448469e991f3d709826c5e06c32651ba194def6e3f4d139f3e6d16ee64736f6c634300081c0033",
  "linkReferences": {},
  "deployedLinkReferences": {},
  "immutableReferences": {},
  "inputSourceName": "project/contracts/SimpleEscrow.sol",
  "buildInfoId": "solc-0_8_28-6b599c08fdaf7c2dd6abe05b8132eb8b17acf682"
}